{
  "contractName": "MrtCoin",
  "abi": [
    {
      "inputs": [],
      "payable": false,
      "stateMutability": "nonpayable",
      "type": "constructor"
    },
    {
      "constant": true,
      "inputs": [],
      "name": "totalSupply",
      "outputs": [
        {
          "internalType": "uint256",
          "name": "",
          "type": "uint256"
        }
      ],
      "payable": false,
      "stateMutability": "view",
      "type": "function"
    }
  ],
  "bytecode": "0x6080604052348015600f57600080fd5b50633b9aca006000819055506084806100296000396000f3fe6080604052348015600f57600080fd5b506004361060285760003560e01c806318160ddd14602d575b600080fd5b60336049565b6040518082815260200191505060405180910390f35b6000548156fea265627a7a72315820f75db842c8d6700831112fa9e3bed9b5e4b76009cfad378528add1fb8d81351864736f6c63430005100032",
  "source": "pragma solidity >=0.4.2;\n\ncontract MrtCoin{\n\n  uint256 public totalSupply;\n\n  constructor () public {\n    totalSupply = 1000000000;\n  }\n\n}\n",
  "sourcePath": "/Users/mertozbay/Desktop/mrt_coin/contracts/MrtCoin.sol",
  "compiler": {
    "name": "solc",
    "version": "0.5.16+commit.9c3226ce.Emscripten.clang"
  },
  "schemaVersion": "3.4.1",
  "updatedAt": "2021-06-17T14:33:01.167Z",
  "networkType": "ethereum",
  "devdoc": {
    "methods": {}
  },
  "userdoc": {
    "methods": {}
  }
}